S013000045565F4441515F556E69742E7372656342
S11300000C945A000C9477000C9477000C947700AD
S11300100C9477000C9477000C9477000C94770080
S11300200C9477000C9477000C9477000C94B70030
S11300300C9477000C9477000C9477000C94770060
S11300400C9477000C9477000C9477000C94770050
S11300500C9477000C9477000C9477000C94770040
S11300600C9477000C9477000C9477000C94770030
S11300700C9477000C9477000C9477000C94770020
S11300800C9477000C9477000C9477000C94770010
S11300900C9477000C9477000C9477000C94770000
S11300A00C9477000C9477000C9477000C947700F0
S11300B00C94770011241FBECFEFD8E0DEBFCDBF74
S11300C011E0A0E0B1E0E8EAF2E002C005900D9290
S11300D0A030B107D9F721E0A0E0B1E001C01D9242
S11300E0AB30B207E1F70E9485000C9452010C94E6
S11300F0000084B18C7F84B985B1836085B98AB1ED
S1130100806C8AB9229A2A9A08950E941C010E943E
S1130110790078948BB180588BB9C0EC84EF91E06E
S11301200E9438018BB18C278BB9189B02C0199996
S1130130F5CF2A9884E690E00E9438018BB1806C58
S11301408BB984E690E00E9438018BB18C278BB97F
S113015084E690E00E9438018BB18C278BB984E649
S113016090E00E9438018BB180588BB9D7CF1F9291
S11301700F920FB60F9211242F938F939F93AF93E7
S1130180BF938091070190910801A0910901B0915A
S11301900A010196A11DB11D8093070190930801E6
S11301A0A0930901B0930A01809105019091060181
S11301B00196909306018093050180910501909129
S11301C00601883E934070F11092060110920501D9
S11301D0809104018F5F80930401809104018C332A
S11301E008F110920401809103018F5F8093030151
S11301F0809103018C33B0F01092030180910201CD
S11302008F5F8093020180910201883158F010922F
S113021002018091000190910101019690930101E6
S113022080930001BF91AF919F918F912F910F9077
S11302300FBE0F901F901895AFE6B0E08C918D7FA4
S11302408C93E1E8F0E08081887F808310928000C5
S113025080818B60808389EF90E090938900809304
S113026088008C9182608C93808183608083089560
S113027040910701509108016091090170910A01B0
S1130280480F591F611D711D80910701909108014C
S1130290A0910901B0910A0184179507A607B70731
S10B02A098F30895F894FFCFD0
S9030000FC
