S013000045565F4441515F556E69742E7372656342
S11300000C9460000C947D000C947D000C947D0095
S11300100C947D000C947D000C947D000C947D0068
S11300200C947D000C947D000C947D000C949A003B
S11300300C947D000C947D000C947D000C947D0048
S11300400C947D000C947D000C947D000C947D0038
S11300500C947D000C947D000C947D000C947D0028
S11300600C947D000C947D000C947D000C947D0018
S11300700C947D000C947D000C947D000C947D0008
S11300800C947D000C947D000C947D000C947D00F8
S11300900C947D000C947D000C947D000C947D00E8
S11300A00C947D000C947D000C947D000C947D00D8
S11300B00C947D006364696E6F70737578585B008F
S11300C011241FBECFEFD8E0DEBFCDBF11E0A0E00A
S11300D0B1E0E4ECFDE002C005900D92AA30B10756
S11300E0D9F721E0AAE0B1E001C01D92A931B2071D
S11300F0E1F70E947F000C94E0060C9400000F2EA0
S1130100F0E0EF2EF1E0FF2EF02D0AE011E0C6E062
S1130110D1E0FF92EF920E94E3001F930F93DF93CD
S1130120CF930E94F9000F900F900F900F900F90B3
S11301300F90EFCF1F920F920FB60F9211242F93AF
S11301408F939F9380911101909112010196883EA3
S113015023E0920728F490931201809311012BC09D
S11301601092120110921101809110018F5F8C3353
S113017018F4809310011FC01092100180910F0198
S11301808F5F8C3318F480930F0115C010920F0108
S113019080910E018F5F883118F480930E010BC09B
S11301A010920E0180910C0190910D010196909393
S11301B00D0180930C019F918F912F910F900FBE91
S11301C00F901F901895A0E0B0E0E9EEF0E00C94D9
S11301D0B906AE014B5F5F4FFA0161917191AF01B6
S11301E080911501909116010E940F01E2E00C9498
S11301F0D506A0E0B0E0EFEFF0E00C94B906AE0154
S11302004B5F5F4FFA0161917191AF0180911301CE
S1130210909114010E946104E2E00C94D506ACE0D4
S1130220B0E0E5E1F1E00C94A9067C016B018A01E0
S1130230FC0117821682838181FFBDC1CE01019624
S11302404C01F7019381F60193FD859193FF819110
S11302506F01882309F4ABC1853239F493FD85918C
S113026093FF81916F01853229F4B70190E00E94D8
S1130270F705E7CF512C312C20E02032A0F48B324B
S113028069F030F4803259F0833269F420612CC073
S11302908D3239F0803339F4216026C02260246025
S11302A023C0286021C027FD27C030ED380F3A3025
S11302B078F426FF06C0FAE05F9E300D1124532E19
S11302C013C08AE0389E300D1124332E20620CC0F6
S11302D08E3221F426FD6BC1206406C08C3611F4E5
S11302E0206802C0883641F4F60193FD859193FF9E
S11302F081916F018111C1CF982F9F7D95549330C7
S113030028F40C5F1F4FFFE3F9830DC0833631F0EF
S1130310833771F0833509F05BC022C0F801808116
S113032089830E5F1F4F44244394512C540115C0FC
S11303303801F2E06F0E711CF801A080B18026FF35
S113034003C0652D70E002C06FEF7FEFC5012C87FD
S11303500E94AE052C0183012C852F77222E17C015
S11303603801F2E06F0E711CF801A080B18026FF05
S113037003C0652D70E002C06FEF7FEFC5012C87CD
S11303800E94A3052C012C852068222E830123FCC6
S11303901BC0832D90E048165906B0F4B70180E2E3
S11303A090E00E94F7053A94F4CFF50127FC85917B
S11303B027FE81915F01B70190E00E94F70531109B
S11303C03A94F1E04F1A51084114510471F7E5C011
S11303D0843611F0893639F5F80127FF07C06081AA
S11303E07181828193810C5F1F4F08C0608171818C
S11303F0072E000C880B990B0E5F1F4F2F76722E61
S113040097FF09C090958095709561957F4F8F4FA8
S11304109F4F2068722E2AE030E0A4010E94480613
S1130420A82EA81844C0853729F42F7EB22E2AE0BE
S113043030E025C0F22FF97FBF2E8F36C1F018F4BB
S1130440883579F0B4C0803719F0883721F0AFC00F
S11304502F2F2061B22EB4FE0DC08B2D8460B82ED8
S113046009C024FF0AC09F2F9660B92E06C028E059
S113047030E005C020E130E002C020E132E0F801C4
S1130480B7FE07C060817181828193810C5F1F4F29
S113049006C06081718180E090E00E5F1F4FA4016F
S11304A00E944806A82EA818FB2DFF777F2E76FE03
S11304B00BC0372D3E7FA51450F474FE0AC072FCA5
S11304C008C0372D3E7E05C0BA2C372D03C0BA2C88
S11304D001C0B52C34FF0DC0FE01EA0DF11D808171
S11304E0803311F4397E09C032FF06C0B394B3944B
S11304F004C0832F867809F0B39433FD13C030FF12
S113050006C05A2CB31418F4530C5B18B32CB31450
S113051068F4B70180E290E03C870E94F705B39449
S11305203C85F5CFB31410F43B1801C0312C34FFD3
S113053012C0B70180E390E03C870E94F7053C8538
S113054032FF17C031FD03C088E790E002C088E5A0
S113055090E0B7010CC0832F867859F031FF02C0B8
S11305608BE201C080E237FD8DE2B70190E00E948A
S1130570F705A51438F4B70180E390E00E94F7056D
S11305805A94F7CFAA94F401EA0DF11D8081B701C2
S113059090E00E94F705A110F5CF332009F451CE65
S11305A0B70180E290E00E94F7053A94F6CFF70194
S11305B08681978102C08FEF9FEF2C96E2E10C9425
S11305C0C50620FD09C0FC0123FD05C022FF02C0B1
S11305D07383628351834083089544FD10C046FDB4
S11305E010C0DB01FC01AA0FBB1FEE1FFF1F1094FC
S11305F0D1F76A0F7B1F8E1F9F1F31E003C033E0CA
S113060001C034E0660F771F881F991F3150D1F75E
S1130610620F711D811D911D08950F931F93CF9338
S1130620DF938C01C8010E94B905EC0197FD08C055
S11306300E948F05892BB1F7B801CE010E942F06C5
S1130640CE01DF91CF911F910F910895A1E0B0E009
S1130650ECE2F3E00C94AF068C01C62E7A012983F8
S11306600E94B905AC01552729814B32510521F06F
S11306704D32510569F42068CA94C11002C080E06B
S113068076C0C80129830E94B905298197FDF7CF57
S1130690322F3D7FD32E322F307349F5803339F515
S11306A0BB24BA94BC0C09F44EC0C80129830E942F
S11306B0B905298197FD47C0382F3F7D383569F446
S11306C08D2D8264D82ECA94CA94CC20E1F1C8013D
S11306D00E94B90597FF0BC036C026FF04C02D2D1C
S11306E02260D22E03C03D2D3261D32ECB2C812C1F
S11306F0912C540120ED280F283080F0D4FE04C042
S1130700B8010E942F061CC02A3040F0D6FEF8CF54
S11307102F7D3FEE320F363098F727504D2DC5010F
S1130720B4010E94ED024B015C018D2D8260D82E34
S1130730CA94CC2059F0C8010E94B90597FFDACFBA
S1130740D1FC04C09CCF812C912C5401D7FE08C04D
S1130750B094A09490948094811C911CA11CB11C11
S11307602D2DB501A401C7010E94E10281E021966B
S1130770ECE00C94CB06A1E2B0E0E1ECF3E00C94E5
S1130780AD065C017A01CE0101966C0180E2F601AE
S113079011928A95E9F7F501838040E050E0912CAD
S11307A0712C70E0A1E0B0E0F90183FC859183FE37
S11307B081918F01982F9F01811103C080E090E007
S11307C07CC08E3519F44115510549F1E72FF0E04D
S11307D0E417F5073CF48D3559F18D3219F477207F
S11307E001F103C0711001C0982E892F869586955A
S11307F086958601080F111D892F87703D0101C060
S1130800660C8A95EAF7F801808186298083991518
S113081059F0991510F49F5FE8CF9150E6CF71E03D
S113082004C07724739401C0712C4F5F5F4FBCCF19
S1130830772019F08E8180628E83711103C0992410
S1130840939416C0F6019E012F5D3F4F80818095E1
S11308508193E217F307D1F7F2CFE114F10429F001
S1130860F7018083C70101967C016150912CF9F056
S1130870C50169A30E94B90569A197FD16C0282F77
S1130880269526952695F601E20FF11D208130E08C
S1130890AC014770552702C0359527954A95E2F774
S11308A020FDDBCFB5010E942F06911087CFE11404
S11308B0F10411F0F7011082C801A196EEE00C9446
S11308C0C9064F925F927F928F929F92AF92BF928E
S11308D0CF92DF92EF92FF920F931F93CF93DF9308
S11308E01F92CDB7DEB76C012B015A01FC011782B0
S11308F01682712CF601F380F201F3FC8591F3FE6C
S11309008191382F2F01882309F4F3C090E03983B3
S11309100E948F053981892B21F0C6010E940D03A5
S1130920E9CF353241F4F201F3FC3591F3FE319114
S11309302F01353269F4C60139830E94B905398122
S113094097FDD5C03817B1F2B6010E942F06D1C069
S11309503A3239F4F3FC3591F3FE31912F0151E031
S113096001C050E0420110E020ED230F2A3090F442
S11309705260612F70E080E090E040E259830E9471
S1130980ED02162FF401F3FC3591F3FE31914F0182
S11309905981EACF052F232F240151FF03C01111E0
S11309A002C0A7C01FEF383619F03C3659F011C009
S11309B0F401F3FC2591F3FE21912F01283649F42B
S11309C0052F08600460F201F3FC2591F3FE2191E8
S11309D02F01222309F48DC0622F70E084EB90E094
S11309E029830E9498052981892B09F482C000FD7E
S11309F007C0F501E080F180C50102965C0102C0E8
S1130A00E12CF12C2E3651F4F6014681578160E039
S1130A1070E0202FC7010E94E1026CCF233691F4CD
S1130A2001FF11E0C6010E94B90597FD60C0E11401
S1130A30F10429F0F7018083C70101967C0111506C
S1130A4089F751C02B3559F49201A701612FC601D2
S1130A500E94BB032C01892B09F045C03FC0C6018D
S1130A6029830E940D03298197FD41C02F3659F136
S1130A7028F4243631F1293649F127C0233769F0A7
S1130A802537F9F022C0E114F10429F0F70180823E
S1130A90C70101967C01115071F0C6010E94B9058D
S1130AA04C0197FD08C00E948F05892B61F3B601A4
S1130AB0C4010E942F06E114F104A9F0F701108289
S1130AC012C0006203C0006101C00064202FA701AE
S1130AD0612FC6010E942603811105C0F60183819E
S1130AE0807329F406C000FD05CF739403CF7720EB
S1130AF019F0872D90E002C08FEF9FEF0F90DF91E8
S1130B00CF911F910F91FF90EF90DF90CF90BF9006
S1130B10AF909F908F907F905F904F900895911128
S1130B200C94A606803219F089508550C8F70895B0
S1130B30FC010590061621F00020D9F7C0010895A4
S1130B403197CF010895FC01059061507040011068
S1130B50D8F7809590958E0F9F1F0895FC016150E2
S1130B60704001900110D8F7809590958E0F9F1FCB
S1130B700895CF93DF93EC012B8120FF33C026FF30
S1130B800AC02F7B2B838E819F8101969F838E8346
S1130B908A8190E029C022FF0FC0E881F981808119
S1130BA0082E000C990B009719F420622B831AC0AD
S1130BB03196F983E8830EC0EA85FB85099597FF92
S1130BC009C02B81019611F080E201C080E1822BE3
S1130BD08B8308C02E813F812F5F3F4F3F832E833D
S1130BE0992702C08FEF9FEFDF91CF9108950F9364
S1130BF01F93CF93DF93FB01238121FD03C08FEF6C
S1130C009FEF28C022FF16C0468157812481358179
S1130C104217530744F4A081B1819D012F5F3F4FD8
S1130C20318320838C93268137812F5F3F4F378315
S1130C30268310C0EB01092F182F0084F185E02DC5
S1130C400995892BE1F68E819F8101969F838E837E
S1130C50812F902FDF91CF911F910F910895FB0168
S1130C60238120FF12C026FD10C08F3F3FEF930762
S1130C7061F082832F7D2064238326813781215074
S1130C80310937832683992708958FEF9FEF0895BD
S1130C90FA01AA27283051F1203181F1E8946F93A9
S1130CA06E7F6E5F7F4F8F4F9F4FAF4FB1E03ED04F
S1130CB0B4E03CD0670F781F891F9A1FA11D680FED
S1130CC0791F8A1F911DA11D6A0F711D811D911D20
S1130CD0A11D20D009F468943F912AE0269F112495
S1130CE03019305D3193DEF6CF010895462F4770F9
S1130CF0405D4193B3E00FD0C9F7F6CF462F4F7054
S1130D00405D4A3318F0495D31FD4052419302D0B1
S1130D10A9F7EACFB4E0A695979587957795679557
S1130D20BA95C9F700976105710508959B01AC0157
S1130D300A2E06945795479537952795BA95C9F77E
S1130D40620F731F841F951FA01D0895992788277C
S1130D5008952F923F924F925F926F927F928F925B
S1130D609F92AF92BF92CF92DF92EF92FF920F9336
S1130D701F93CF93DF93CDB7DEB7CA1BDB0B0FB640
S1130D80F894DEBF0FBECDBF09942A8839884888FD
S1130D905F846E847D848C849B84AA84B984C88493
S1130DA0DF80EE80FD800C811B81AA81B981CE0F8A
S1130DB0D11D0FB6F894DEBF0FBECDBFED0108956F
S1070DC0F894FFCFD1
S10D0DC4686168616800256400009E
S9030000FC
