S013000045565F4441515F556E69742E7372656342
S11300000C945A000C9477000C9477000C947700AD
S11300100C9477000C9477000C9477000C94770080
S11300200C9477000C9477000C9477000C94C8011E
S11300300C9477000C9477000C9477000C94770060
S11300400C9477000C9477000C9477000C94770050
S11300500C9477000C9477000C9477000C94770040
S11300600C9477000C9477000C9477000C94770030
S11300700C9477000C9477000C9477000C94770020
S11300800C9477000C9477000C9477000C94770010
S11300900C9477000C9477000C9477000C94770000
S11300A00C9477000C9477000C9477000C947700F0
S11300B00C94770011241FBECFEFD8E0DEBFCDBF74
S11300C011E0A0E0B1E0EEE0F5E002C005900D9291
S11300D0A030B107D9F721E0A0E0B1E001C01D9242
S11300E0AB30B207E1F70E946D010C9485020C94C9
S11300F0000084B18C7F84B985B1836085B98AB1ED
S1130100806C8AB9229A2A9A08950E946302DA01BD
S1130110C9014097A109B109B695A7959795879507
S11301208093D800ECEDF0E08081816080830895B5
S1130130813069F018F0823099F01AC084EA809313
S1130140DC00ECEDF0E080818823ECF711C084E85A
S11301508093DC00ECEDF0E080818823ECF708C0AC
S113016084E98093DC00ECEDF0E0808184FFFDCF36
S11301708091D900887F0895FF920F931F93CF93A6
S1130180DF9380E00E949800CBEDD0E01CE7188359
S113019081E00E949800188281E00E94980088E320
S11301A0888381E00E9498008AE090E00E944902DE
S11301B00F2EF9E3FF2EF02DF88281E00E949800C3
S11301C08AE090E00E94490284E1888381E00E94F1
S11301D0980088E7888381E00E9498008EE58883F0
S11301E081E00E9498008DE6888381E00E94980057
S11301F08CE0888381E00E94980001E0088381E01C
S11302000E94980086E0888381E00E9498008AE03A
S113021090E00E94490282E00E94980084E690E007
S11302200E94490280E00E9498008AE090E00E94C7
S11302304902188381E00E949800188281E00E949C
S11302409800F88281E00E949800088381E00E946F
S1130250980082E00E9498008AE090E00E9449029F
S113026080E00E9498008AE090E00E94490218838E
S113027081E00E949800188281E00E94980086E440
S1130280888381E00E94980010E2188381E00E9434
S1130290980085E5888381E00E949800188381E0B6
S11302A00E94980083E4888381E00E949800188368
S11302B081E00E9498008BE4888381E00E9498008A
S11302C082E00E9498008AE090E00E944902DF9157
S11302D0CF911F910F91FF9008950E942D020E94CB
S11302E0790020EA36E841E050E060E074E284EF0F
S11302F090E00E94850078948BB180588BB9C0EC53
S113030084EF91E00E9449028BB18C278BB9199933
S11303101EC02A9884E690E00E9449022A9A8BB172
S1130320806C8BB984E690E00E9449028BB18C27E3
S11303308BB984E690E00E9449028BB18C278BB97B
S113034084E690E00E9449028BB180588BB91899D9
S1130350D7CF0E94BC0082E390E00E9449028BB197
S1130360806C8BB982E390E00E9449028BB18C27A8
S11303708BB982E390E00E9449028BB18C278BB940
S113038082E390E00E9449028BB180588BB9B8CFC8
S11303901F920F920FB60F9211242F938F939F9356
S11303A0AF93BF938091070190910801A091090137
S11303B0B0910A010196A11DB11D8093070190938C
S11303C00801A0930901B0930A018091050190915D
S11303D00601019690930601809305018091050121
S11303E090910601883E934070F11092060110929C
S11303F00501809104018F5F8093040180910401C1
S11304008C3308F110920401809103018F5F809373
S11304100301809103018C33B0F0109203018091A9
S113042002018F5F8093020180910201883158F0AC
S11304301092020180910001909101010196909324
S1130440010180930001BF91AF919F918F912F91F2
S11304500F900FBE0F901F901895AFE6B0E08C91EF
S11304608D7F8C93E1E8F0E08081887F8083109217
S1130470800080818B60808389EF90E09093890075
S1130480809388008C9182608C93808183608083C8
S113049008954091070150910801609109017091FC
S11304A00A01480F591F611D711D80910701909128
S11304B00801A0910901B0910A0184179507A607C4
S11304C0B70798F30895A1E21A2EAA1BBB1BFD01DE
S11304D00DC0AA1FBB1FEE1FFF1FA217B307E4071F
S11304E0F50720F0A21BB30BE40BF50B661F771F77
S11304F0881F991F1A9469F7609570958095909557
S11105009B01AC01BD01CF010895F894FFCF1B
S9030000FC
