:100000000C945A000C9477000C9477000C947700B1
:100010000C9477000C9477000C9477000C94770084
:100020000C9477000C9477000C9477000C94C40126
:100030000C9477000C9477000C9477000C94770064
:100040000C9477000C9477000C9477000C94770054
:100050000C9477000C9477000C9477000C94770044
:100060000C9477000C9477000C9477000C94770034
:100070000C9477000C9477000C9477000C94770024
:100080000C9477000C9477000C9477000C94770014
:100090000C9477000C9477000C9477000C94770004
:1000A0000C9477000C9477000C9477000C947700F4
:1000B0000C94770011241FBECFEFD8E0DEBFCDBF78
:1000C00011E0A0E0B1E0E6E0F5E002C005900D929D
:1000D000AA32B107D9F721E0AAE2B1E001C01D922E
:1000E000A533B207E1F70E9491010C9481020C94B0
:1000F000000084B18C7F84B985B1836085B98AB1F1
:10010000806C8AB9229A2A9A08950E945F02DA01C5
:10011000C9014097A109B109B695A795979587950B
:100120008093D800ECEDF0E08081816080830895B9
:10013000813069F018F0823099F01AC084EA809317
:10014000DC00ECEDF0E080818823ECF711C084E85E
:100150008093DC00ECEDF0E080818823ECF708C0B0
:1001600084E98093DC00ECEDF0E0808184FFFDCF3A
:100170008091D900887F0895EF92FF920F931F938B
:10018000CF93DF93C82F7B018A0180E00E94980003
:100190008CE78093DB0081E00E949800C11106C0CB
:1001A0001092DB0081E00E94980006C080E48093FA
:1001B000DB0081E00E9498000115110589F0E7013C
:1001C0000E0D1F1D0F2EFBEDEF2EF12CF02D899142
:1001D000F701808381E00E949800C017D107B9F72A
:1001E00082E00E949800DF91CF911F910F91FF90C4
:1001F000EF900895CF93DF931F92CDB7DEB780ECD9
:10020000898341E050E0BE016F5F7F4F80E00E9434
:10021000BC008AE090E00E9445020F90DF91CF91F0
:100220000895CF93DF93CDB7DEB7AA970FB6F894B2
:10023000DEBF0FBECDBF88E3898389E38A8387E071
:10024000E0E0F1E0DE01139601900D928A95E1F76E
:1002500080E78A8780E1E7E0F1E0DE011B9601900C
:100260000D928A95E1F780E1E8E1F1E0DE015B962D
:1002700001900D928A95E1F72A988AE090E00E9419
:1002800045022A9A8AE090E00E94450241E050E04F
:10029000BE016F5F7F4F80E00E94BC008AE090E06B
:1002A0000E94450241E050E0BE016E5F7F4F80E05A
:1002B0000E94BC008AE090E00E94450247E050E0C6
:1002C000BE016D5F7F4F80E00E94BC008AE090E03D
:1002D0000E94450241E050E0BE01665F7F4F80E032
:1002E0000E94BC008AE090E00E94450240E150E09C
:1002F000BE01655F7F4F80E40E94BC000E94FA004F
:1003000040E150E0BE01655E7F4F80E40E94BC008A
:10031000AA960FB6F894DEBF0FBECDBFDF91CF9186
:10032000089578940E9479000E94290220EA36E814
:1003300041E050E060E074E284EF90E00E948500CC
:100340000E9411018BB180588BB9C0EC84EF91E011
:100350000E9445028BB18C278BB9199909C08BB1CA
:100360008C278BB984E690E00E944502199BF7CF59
:100370001899ECCF8BB18C278BB982E390E00E9467
:100380004502189BF7CFE2CF1F920F920FB60F9244
:1003900011242F938F939F93AF93BF93809131013B
:1003A00090913201A0913301B09134010196A11DC9
:1003B000B11D8093310190933201A0933301B0932A
:1003C000340180912F01909130010196909330017A
:1003D00080932F0180912F0190913001883E9340AE
:1003E00070F11092300110922F0180912E018F5FD9
:1003F00080932E0180912E018C3308F110922E01F2
:1004000080912D018F5F80932D0180912D018C3380
:10041000B0F010922D0180912C018F5F80932C0100
:1004200080912C01883158F010922C0180912A0182
:1004300090912B01019690932B0180932A01BF91FB
:10044000AF919F918F912F910F900FBE0F901F90A2
:100450001895AFE6B0E08C918D7F8C93E1E8F0E0E9
:100460008081887F80831092800080818B60808370
:1004700089EF90E090938900809388008C9182604E
:100480008C938081836080830895409131015091E5
:1004900032016091330170913401480F591F611D81
:1004A000711D8091310190913201A0913301B09181
:1004B000340184179507A607B70798F30895A1E2BA
:1004C0001A2EAA1BBB1BFD010DC0AA1FBB1FEE1FCE
:1004D000FF1FA217B307E407F50720F0A21BB30B19
:1004E000E40BF50B661F771F881F991F1A9469F795
:1004F00060957095809590959B01AC01BD01CF01F1
:060500000895F894FFCFFE
:1005060014785E6D0C010645562044415120554E27
:1005160049542076302E31006769746875622E63FF
:0A0526006F6D2F6A667269320000E3
:00000001FF
