S013000045565F4441515F556E69742E7372656342
S11300000C945A000C9477000C9477000C947700AD
S11300100C9477000C9477000C9477000C94770080
S11300200C9477000C9477000C9477000C941E01C8
S11300300C9477000C9477000C9477000C94770060
S11300400C9477000C9477000C9477000C94770050
S11300500C9477000C9477000C9477000C94770040
S11300600C9477000C9477000C9477000C94770030
S11300700C9477000C9477000C9477000C94770020
S11300800C9477000C9477000C9477000C94770010
S11300900C9477000C9477000C9477000C94770000
S11300A00C9477000C9477000C9477000C947700F0
S11300B00C94770011241FBECFEFD8E0DEBFCDBF74
S11300C012E0A0E0B1E0ECE0F9E002C005900D928E
S11300D0A831B107D9F722E0A8E1B2E001C01D922E
S11300E0A532B207E1F70E9479000C9484040C94C1
S11300F0000020E032EC41E050E060E074E284EF84
S113010090E00E94DA000E94FE008EE091E09F934E
S11301108F930E9489018EE391E09F938F930E94B5
S11301208901CEE6D1E0DF93CF930E9489018EE965
S113013091E09F938F930E948901DF93CF930E9454
S113014089018EEC91E09F938F930E9489018EE048
S113015091E00E949F018DB79EB70C960FB6F8945C
S11301609EBF0FBE8DBFCEEFD1E080911E028F9354
S113017080911D028F9380911C021F928F93809116
S11301801B021F928F9380911A021F928F9380916A
S113019019028F93809118028F93DF93CF930E945B
S11301A089018DB79EB70C960FB6F8949EBF0FBE0B
S11301B08DBFDBCF1092C000E8E1E093C100E6E020
S11301C0E093C2000E946701BA01A901689414F87F
S11301D076956795579547951694D1F7DB01CA0133
S11301E00197A109B109892F9A2FAB2FBB278093BF
S11301F0C5002FEF240F2093C4000895EFE1F2E02F
S113020080E091E093838283918380830895E0EC7E
S1130210F0E0908195FFFDCF8093C60008950E9481
S1130220070180E00895E0ECF0E080818823ECF79A
S11302308091C60008950E94130108951F920F92A1
S11302400FB60F9211242F938F939F9380911D02C9
S113025090911E020196883E23E0920728F4909321
S11302601E0280931D022BC010921E0210921D02CA
S113027080911C028F5F8C3318F480931C021FC082
S113028010921C0280911B028F5F8C3318F48093B0
S11302901B0215C010921B0280911A028F5F8831D5
S11302A018F480931A020BC010921A02809118025B
S11302B090911902019690931902809318029F91CC
S11302C08F912F910F900FBE0F901F901895A1E260
S11302D01A2EAA1BBB1BFD010DC0AA1FBB1FEE1FBC
S11302E0FF1FA217B307E407F50720F0A21BB30B07
S11302F0E40BF50B661F771F881F991F1A9469F783
S113030060957095809590959B01AC01BD01CF01DE
S11303100895A0E0B0E0EFE8F1E00C945D04AE01D4
S11303204B5F5F4FFA0161917191AF01809121029E
S1130330909122020E94CF01E2E00C9479040F9381
S11303401F93CF93DF93E0912102F0912202238146
S113035021FF1BC08C01D0E0C0E0F80181918F0126
S11303606091210270912202DB011896ED91FC91BB
S11303701997882331F00995892B79F3DFEFCFEFB3
S1130380ECCF8AE00995892B19F08FEF9FEF02C01B
S11303908D2F9C2FDF91CF911F910F910895ACE089
S11303A0B0E0E5EDF1E00C944D047C016B018A01B1
S11303B0FC0117821682838181FFBDC1CE010196A3
S11303C04C01F7019381F60193FD859193FF81918F
S11303D06F01882309F4ABC1853239F493FD85910B
S11303E093FF81916F01853229F4B70190E00E9457
S11303F0B703E7CF512C312C20E02032A0F48B320C
S113040069F030F4803259F0833269F420612CC0F1
S11304108D3239F0803339F4216026C022602460A3
S113042023C0286021C027FD27C030ED380F3A30A3
S113043078F426FF06C0FAE05F9E300D1124532E97
S113044013C08AE0389E300D1124332E20620CC074
S11304508E3221F426FD6BC1206406C08C3611F463
S1130460206802C0883641F4F60193FD859193FF1C
S113047081916F018111C1CF982F9F7D9554933045
S113048028F40C5F1F4FFFE3F9830DC0833631F06E
S1130490833771F0833509F05BC022C0F801808195
S11304A089830E5F1F4F44244394512C540115C07B
S11304B03801F2E06F0E711CF801A080B18026FFB4
S11304C003C0652D70E002C06FEF7FEFC5012C877C
S11304D00E94AC032C0183012C852F77222E17C098
S11304E03801F2E06F0E711CF801A080B18026FF84
S11304F003C0652D70E002C06FEF7FEFC5012C874C
S11305000E94A1032C012C852068222E830123FC48
S11305101BC0832D90E048165906B0F4B70180E261
S113052090E00E94B7033A94F4CFF50127FC85913B
S113053027FE81915F01B70190E00E94B70331105B
S11305403A94F1E04F1A51084114510471F7E5C08F
S1130550843611F0893639F5F80127FF07C0608128
S11305607181828193810C5F1F4F08C0608171810A
S1130570072E000C880B990B0E5F1F4F2F76722EDF
S113058097FF09C090958095709561957F4F8F4F27
S11305909F4F2068722E2AE030E0A4010E94EF03EE
S11305A0A82EA81844C0853729F42F7EB22E2AE03D
S11305B030E025C0F22FF97FBF2E8F36C1F018F43A
S11305C0883579F0B4C0803719F0883721F0AFC08E
S11305D02F2F2061B22EB4FE0DC08B2D8460B82E57
S11305E009C024FF0AC09F2F9660B92E06C028E0D8
S11305F030E005C020E130E002C020E132E0F80143
S1130600B7FE07C060817181828193810C5F1F4FA7
S113061006C06081718180E090E00E5F1F4FA401ED
S11306200E94EF03A82EA818FB2DFF777F2E76FEDD
S11306300BC0372D3E7FA51450F474FE0AC072FC23
S113064008C0372D3E7E05C0BA2C372D03C0BA2C06
S113065001C0B52C34FF0DC0FE01EA0DF11D8081EF
S1130660803311F4397E09C032FF06C0B394B394C9
S113067004C0832F867809F0B39433FD13C030FF90
S113068006C05A2CB31418F4530C5B18B32CB314CF
S113069068F4B70180E290E03C870E94B703B3940A
S11306A03C85F5CFB31410F43B1801C0312C34FF52
S11306B012C0B70180E390E03C870E94B7033C85F9
S11306C032FF17C031FD03C088E790E002C088E51F
S11306D090E0B7010CC0832F867859F031FF02C037
S11306E08BE201C080E237FD8DE2B70190E00E9409
S11306F0B703A51438F4B70180E390E00E94B70370
S11307005A94F7CFAA94F401EA0DF11D8081B70140
S113071090E00E94B703A110F5CF332009F451CE25
S1130720B70180E290E00E94B7033A94F6CFF70154
S11307308681978102C08FEF9FEF2C96E2E10C94A3
S11307406904FC010590615070400110D8F7809550
S113075090958E0F9F1F0895FC0161507040019089
S11307600110D8F7809590958E0F9F1F08950F93D1
S11307701F93CF93DF93FB01238121FD03C08FEFF0
S11307809FEF28C022FF16C04681578124813581FE
S11307904217530744F4A081B1819D012F5F3F4F5D
S11307A0318320838C93268137812F5F3F4F37839A
S11307B0268310C0EB01092F182F0084F185E02D4A
S11307C00995892BE1F68E819F8101969F838E8303
S11307D0812F902FDF91CF911F910F910895FA01EE
S11307E0AA27283051F1203181F1E8946F936E7F6C
S11307F06E5F7F4F8F4F9F4FAF4FB1E03ED0B4E05D
S11308003CD0670F781F891F9A1FA11D680F791F9D
S11308108A1F911DA11D6A0F711D811D911DA11DAE
S113082020D009F468943F912AE0269F11243019BE
S1130830305D3193DEF6CF010895462F4770405D59
S11308404193B3E00FD0C9F7F6CF462F4F70405D08
S11308504A3318F0495D31FD4052419302D0A9F763
S1130860EACFB4E0A6959795879577956795BA955D
S1130870C9F700976105710508959B01AC010A2E23
S113088006945795479537952795BA95C9F7620FFA
S1130890731F841F951FA01D08952F923F924F929E
S11308A05F926F927F928F929F92AF92BF92CF92FC
S11308B0DF92EF92FF920F931F93CF93DF93CDB705
S11308C0DEB7CA1BDB0B0FB6F894DEBF0FBECDBF7D
S11308D009942A88398848885F846E847D848C844E
S11308E09B84AA84B984C884DF80EE80FD800C8157
S11308F01B81AA81B981CE0FD11D0FB6F894DEBF3A
S10F09000FBECDBFED010895F894FFCFA9
S113090C00000003000000000F011B0100000A3D61
S113091C3D3D3D3D3D3D3D3D3D3D3D3D3D3D3D3DF7
S113092C3D3D3D3D3D3D3D3D3D3D3D3D3D3D3D3DE7
S113093C3D3D3D3D3D3D3D3D3D3D3D3D3D000A2064
S113094C2020202020202020202020202020202097
S113095C20204445425547204255494C44202020F0
S113096C20202020202020202020202020000A20AD
S113097C2020202020202020202020202020202067
S113098C2020202020202020202020202020202057
S113099C20202020202020202020202020000A2D70
S11309AC2D2D2D454C454354524943205645484919
S11309BC434C4520444154412041435155495349EA
S11309CC54494F4E20554E49542D2D2D2D000A209F
S11309DC202020434F50595249474854204E4F54DD
S11309EC4943453A202863292032303136204A6F56
S11309FC686E20467269747A2020202020000A2513
S1130A0C6420253032643A253032643A253032641D
S10B0A1C3A2530336420000088
S9030000FC
