:100000000C945A000C9477000C9477000C947700B1
:100010000C9477000C9477000C9477000C94770084
:100020000C9477000C9477000C9477000C94C70123
:100030000C9477000C9477000C9477000C94770064
:100040000C9477000C9477000C9477000C94770054
:100050000C9477000C9477000C9477000C94770044
:100060000C9477000C9477000C9477000C94770034
:100070000C9477000C9477000C9477000C94770024
:100080000C9477000C9477000C9477000C94770014
:100090000C9477000C9477000C9477000C94770004
:1000A0000C9477000C9477000C9477000C947700F4
:1000B0000C94770011241FBECFEFD8E0DEBFCDBF78
:1000C00011E0A0E0B1E0ECE0F5E002C005900D9297
:1000D000A431B107D9F721E0A4E1B1E001C01D923C
:1000E000AF31B207E1F70E946C010C9484020C94CA
:1000F000000084B18C7F84B985B1836085B98AB1F1
:10010000806C8AB9229A2A9A08950E946202DA01C2
:10011000C9014097A109B109B695A795979587950B
:100120008093D800ECEDF0E08081816080830895B9
:10013000813069F018F0823099F01AC084EA809317
:10014000DC00ECEDF0E080818823ECF711C084E85E
:100150008093DC00ECEDF0E080818823ECF708C0B0
:1001600084E98093DC00ECEDF0E0808184FFFDCF3A
:100170008091D900887F0895EF92FF920F931F938B
:10018000CF93DF93C82F7B018A0180E00E94980003
:100190008CE78093DB0081E00E949800C11106C0CB
:1001A0001092DB0081E00E94980006C080E48093FA
:1001B000DB0081E00E9498000115110589F0E7013C
:1001C0000E0D1F1D0F2EFBEDEF2EF12CF02D899142
:1001D000F701808381E00E949800C017D107B9F72A
:1001E00082E00E949800DF91CF911F910F91FF90C4
:1001F000EF900895CF93DF93CDB7DEB767970FB633
:10020000F894DEBF0FBECDBF88E3898389E38A837C
:1002100097E0E0E0F1E0DE01139601900D929A95EF
:10022000E1F790E79A878B8781E08C878BE0E7E0A6
:10023000F1E0DE011D9601900D928A95E1F741E013
:1002400050E0BE016F5F7F4F80E00E94BC008AE0FB
:1002500090E00E94480241E050E0BE016E5F7F4F97
:1002600080E00E94BC008AE090E00E94480247E0E3
:1002700050E0BE016D5F7F4F80E00E94BC008AE0CD
:1002800090E00E94480241E050E0BE01665F7F4F6F
:1002900080E00E94BC008AE090E00E94480242E0B8
:1002A00050E0BE01655F7F4F80E00E94BC008AE0A5
:1002B00090E00E9448024BE050E0BE01635F7F4F38
:1002C00080E40E94BC0067960FB6F894DEBF0FBEB4
:1002D000CDBFDF91CF9108950E942C020E9479003A
:1002E00020EA36E841E050E060E074E284EF90E01C
:1002F0000E94850078948BB180588BB9C0EC84EF54
:1003000091E00E9448028BB18C278BB919991EC0CD
:100310002A9884E690E00E9448022A9A8BB1806C69
:100320008BB984E690E00E9448028BB18C278BB990
:1003300084E690E00E9448028BB18C278BB984E65A
:1003400090E00E9448028BB180588BB91899D7CFA2
:100350000E94FA0082E390E00E9448028BB1806C18
:100360008BB982E390E00E9448028BB18C278BB955
:1003700082E390E00E9448028BB18C278BB982E324
:1003800090E00E9448028BB180588BB9B8CF1F9281
:100390000F920FB60F9211242F938F939F93AF93C9
:1003A000BF9380911B0190911C01A0911D01B09100
:1003B0001E010196A11DB11D80931B0190931C018C
:1003C000A0931D01B0931E018091190190911A0113
:1003D000019690931A0180931901809119019091CF
:1003E0001A01883E934070F110921A01109219017F
:1003F000809118018F5F80931801809118018C33D0
:1004000008F110921801809117018F5F80931701F6
:10041000809117018C33B0F0109217018091160172
:100420008F5F8093160180911601883158F01092E9
:100430001601809114019091150101969093150178
:1004400080931401BF91AF919F918F912F910F9045
:100450000FBE0F901F901895AFE6B0E08C918D7F86
:100460008C93E1E8F0E08081887F808310928000A7
:1004700080818B60808389EF90E0909389008093E6
:1004800088008C9182608C93808183608083089542
:1004900040911B0150911C0160911D0170911E0142
:1004A000480F591F611D711D80911B0190911C0106
:1004B000A0911D01B0911E0184179507A607B707EB
:1004C00098F30895A1E21A2EAA1BBB1BFD010DC0D3
:1004D000AA1FBB1FEE1FFF1FA217B307E407F507F4
:1004E00020F0A21BB30BE40BF50B661F771F881FD0
:1004F000991F1A9469F760957095809590959B0166
:0C050000AC01BD01CF010895F894FFCFBD
:10050C0014785E6D0C010648656C6C6F20576F7229
:04051C006C6400000B
:00000001FF
