:100000000C945A000C9477000C9477000C947700B1
:100010000C9477000C9477000C9477000C94770084
:100020000C9477000C9477000C9477000C946E037A
:100030000C9477000C9477000C9477000C94770064
:100040000C9477000C9477000C9477000C94770054
:100050000C9477000C9477000C9477000C94770044
:100060000C9477000C9477000C9477000C94770034
:100070000C9477000C9477000C9477000C94770024
:100080000C9477000C9477000C9477000C94770014
:100090000C9477000C9477000C9477000C94770004
:1000A0000C9477000C9477000C9477000C947700F4
:1000B0000C94770011241FBECFEFD8E0DEBFCDBF78
:1000C00011E0A0E0B1E0EAE0FEE002C005900D9290
:1000D000A234B107D9F725E0A2E4B1E001C01D9236
:1000E000AD3CB207E1F70E94D1020C9403070C94D7
:1000F000000080937E00ECE7F0E08081407C482B9C
:1001000040836770606860937A000895882381F067
:10011000ECE7F0E09081892B808393E0EAE7F0E060
:10012000808180648083808186FDFDCF9150C1F7FE
:10013000EAE7F0E0808180648083808186FDFDCFE6
:1001400080917800909179000895DF92EF92FF926C
:100150000F931F93CF93DF934115510589F07A01D7
:10016000D82E062F172FC0E0D0E08D2D0E948600DC
:10017000F801819391938F012196CE15DF05A9F7A0
:10018000DF91CF911F910F91FF90EF90DF90089535
:100190008F929F92AF92BF92CF92DF92EF92FF9297
:1001A0000F931F93CF93DF9362307105B8F18C01E9
:1001B0000E5F1F4FEC01812C912C5401F8014191ED
:1001C00051918F01750164012881398142175307CC
:1001D00078F4DE013293229321E0C21AD108E108BB
:1001E000F1083E912E914217530710F4FF2094F727
:1001F000EFEFCE1ADE0ACC0CDD1CFC01EC0DFD1D70
:10020000518340832296FFEF8F1A9F0AAF0ABF0ADD
:1002100094012F5F3F4F2617370780F2DF91CF9170
:100220001F910F91FF90EF90DF90CF90BF90AF9014
:100230009F908F900895DB016230710530F0109728
:1002400041F440E050E0BA012CC0FC018081918172
:100250000895FC019B01220F331F820F931F40E082
:1002600050E0BA0121913191420F531F611D711D60
:10027000E817F907B9F715C0220F331F8F5F2A1748
:100280003B07D0F32A173B0749F404C076956795DE
:10029000579547958A95D2F7CA0108958FEF9FEF3A
:1002A000089580E021E030E0E7CF421B530B241794
:1002B000350798F4220F331FFC01E20FF31FDB0117
:1002C000A20FB31F440F551F840F951F2191319129
:1002D0002D933D93E817F907C9F7089584B18C7FF2
:1002E00084B985B1836085B98AB1806C8AB9229A54
:1002F0002A9A08950E940904DA01C9014097A109C8
:10030000B109B695A795979587958093D800ECEDA0
:10031000F0E08081816080830895813069F018F079
:10032000823099F01AC084EA8093DC00ECEDF0E0B2
:1003300080818823ECF711C084E88093DC00ECED29
:10034000F0E080818823ECF708C084E98093DC002A
:10035000ECEDF0E0808184FFFDCF8091D900887FB3
:100360000895EF92FF920F931F93CF93DF93C82FBF
:100370007B018A0180E00E948D018CE78093DB0085
:1003800081E00E948D01C11106C01092DB0081E066
:100390000E948D0106C080E48093DB0081E00E9412
:1003A0008D010115110589F0E7010E0D1F1D0F2E9E
:1003B000FBEDEF2EF12CF02D8991F701808381E088
:1003C0000E948D01C017D107B9F782E00E948D010C
:1003D000DF91CF911F910F91FF90EF900895CF93F0
:1003E000DF931F92CDB7DEB780E8898341E050E00C
:1003F000BE016F5F7F4F80E00E94B10184E690E014
:100400000E94EF030F90DF91CF910895CF93DF9378
:100410001F92CDB7DEB780EC898341E050E0BE018A
:100420006F5F7F4F80E00E94B10184E690E00E9400
:10043000EF030F90DF91CF910895CF93DF931F9239
:10044000CDB7DEB781E0898341E050E0BE016F5F48
:100450007F4F80E00E94B1018AE090E00E94EF03AC
:100460000F90DF91CF910895CF93DF93CDB7DEB793
:10047000AA970FB6F894DEBF0FBECDBF88E389837D
:1004800089E38A8387E0E0E0F1E0DE0113960190E2
:100490000D928A95E1F780E78A8780E1E7E0F1E055
:1004A000DE011B9601900D928A95E1F780E1E8E16B
:1004B000F1E0DE015B9601900D928A95E1F72A98B2
:1004C0008AE090E00E94EF032A9A8AE090E00E947E
:1004D000EF0341E050E0BE016F5F7F4F80E00E947C
:1004E000B1018AE090E00E94EF0341E050E0BE01DC
:1004F0006E5F7F4F80E00E94B1018AE090E00E9431
:10050000EF0347E050E0BE016D5F7F4F80E00E9447
:10051000B1018AE090E00E94EF0341E050E0BE01AB
:10052000665F7F4F80E00E94B1018AE090E00E9408
:10053000EF0340E150E0BE01655F7F4F80E40E9421
:10054000B1010E94060240E150E0BE01655E7F4FAE
:1005500080E40E94B101AA960FB6F894DEBF0FBEE8
:10056000CDBFDF91CF9108954CE251E062E473E09A
:100570000E94A5006CE271E082E493E00E94C80052
:1005800026E130E04CE251E062E471E082E493E085
:100590000E94550160E071E082E491E00E941B013D
:1005A000089578940E94D3030E946E0140E067E0B2
:1005B0008FEF0E94790020EA36E841E050E060E0E9
:1005C00074E284EF90E00E947A010E9434028BB1C1
:1005D00080588BB90F2EF0ECBF2EF02D0F2EF9E2C4
:1005E000CF2EF1E0DF2EF02D0DEB15E00F2EF4E312
:1005F000EF2EF1E0FF2EF02DCDEAD5E084EF91E073
:100600000E94EF038BB18B258BB9199909C08BB16F
:100610008B258BB984E690E00E94EF03199BF7CFFE
:100620001899ECCF8091A9059091AA05A091AB05EE
:10063000B091AC0580939C0590939D05A0939E0579
:10064000B0939F0587E00E94B4028093A005909329
:10065000A1054091A9055091AA056091AB05709143
:10066000AC0540909C0550909D0560909E05709053
:100670009F054419550950939B0540939A059F93F4
:100680008F93DF92CF921F930F930E942B04809140
:100690009A0590919B059F938F93FF92EF92DF9322
:1006A000CF930E942B040E941D020E94EF0140E1A3
:1006B00050E0B80180E40E94B1010E94060240E1CE
:1006C00050E0BE0180E40E94B1018DB79EB70C9648
:1006D0000FB6F8949EBF0FBE8DBF90CF1F920F92A2
:1006E0000FB60F9211242F938F939F93AF93BF93C5
:1006F0008091A9059091AA05A091AB05B091AC0598
:100700000196A11DB11D8093A9059093AA05A09300
:10071000AB05B093AC058091A7059091A805019613
:100720009093A8058093A7058091A7059091A805AF
:10073000883E934070F11092A8051092A705809111
:10074000A6058F5F8093A6058091A6058C3308F1DE
:100750001092A6058091A5058F5F8093A5058091D5
:10076000A5058C33B0F01092A5058091A4058F5F8C
:100770008093A4058091A405883158F01092A405B7
:100780008091A2059091A30501969093A305809373
:10079000A205BF91AF919F918F912F910F900FBEA6
:1007A0000F901F901895AFE6B0E08C918D7F8C93E1
:1007B000E1E8F0E08081887F808310928000808172
:1007C0008B60808389EF90E090938900809388000C
:1007D0008C9182608C9380818360808308954091A6
:1007E000A9055091AA056091AB057091AC05480F21
:1007F000591F611D711D8091A9059091AA05A091B5
:10080000AB05B091AC0584179507A607B70798F319
:100810000895A1E21A2EAA1BBB1BFD010DC0AA1F41
:10082000BB1FEE1FFF1FA217B307E407F50720F059
:10083000A21BB30BE40BF50B661F771F881F991FD4
:100840001A9469F760957095809590959B01AC011D
:10085000BD01CF010895AEE0B0E0E1E3F4E00C9417
:10086000DA060D891E8986E08C831A8309838FEF4F
:100870009FE79E838D83AE01475E5F4F6F89788DC2
:10088000CE0101960E944E042F813885F801E20FB7
:10089000F31F10822E96E4E00C94F606ACE0B0E074
:1008A000E4E5F4E00C94CC067C016B018A01FC01C8
:1008B00017821682838181FFBDC1CE0101964C0152
:1008C000F7019381F60193FD859193FF81916F016B
:1008D000882309F4ABC1853239F493FD859193FFE8
:1008E00081916F01853229F4B70190E00E943606AC
:1008F000E7CF512C312C20E02032A0F48B3269F06C
:1009000030F4803259F0833269F420612CC08D328A
:1009100039F0803339F4216026C02260246023C07E
:10092000286021C027FD27C030ED380F3A3078F419
:1009300026FF06C0FAE05F9E300D1124532E13C02F
:100940008AE0389E300D1124332E20620CC08E3286
:1009500021F426FD6BC1206406C08C3611F420689A
:1009600002C0883641F4F60193FD859193FF819191
:100970006F018111C1CF982F9F7D9554933028F43A
:100980000C5F1F4FFFE3F9830DC0833631F08337CF
:1009900071F0833509F05BC022C0F8018081898342
:1009A0000E5F1F4F44244394512C540115C038014D
:1009B000F2E06F0E711CF801A080B18026FF03C029
:1009C000652D70E002C06FEF7FEFC5012C870E949C
:1009D0002B062C0183012C852F77222E17C038017E
:1009E000F2E06F0E711CF801A080B18026FF03C0F9
:1009F000652D70E002C06FEF7FEFC5012C870E946C
:100A000020062C012C852068222E830123FC1BC08C
:100A1000832D90E048165906B0F4B70180E290E0CB
:100A20000E9436063A94F4CFF50127FC859127FE03
:100A300081915F01B70190E00E94360631103A942F
:100A4000F1E04F1A51084114510471F7E5C08436A2
:100A500011F0893639F5F80127FF07C060817181EF
:100A6000828193810C5F1F4F08C060817181072EC6
:100A7000000C880B990B0E5F1F4F2F76722E97FF7D
:100A800009C090958095709561957F4F8F4F9F4FCE
:100A90002068722E2AE030E0A4010E946E06A82E83
:100AA000A81844C0853729F42F7EB22E2AE030E002
:100AB00025C0F22FF97FBF2E8F36C1F018F488358C
:100AC00079F0B4C0803719F0883721F0AFC02F2FEC
:100AD0002061B22EB4FE0DC08B2D8460B82E09C0EB
:100AE00024FF0AC09F2F9660B92E06C028E030E090
:100AF00005C020E130E002C020E132E0F801B7FE9D
:100B000007C060817181828193810C5F1F4F06C095
:100B10006081718180E090E00E5F1F4FA4010E9410
:100B20006E06A82EA818FB2DFF777F2E76FE0BC031
:100B3000372D3E7FA51450F474FE0AC072FC08C025
:100B4000372D3E7E05C0BA2C372D03C0BA2C01C00C
:100B5000B52C34FF0DC0FE01EA0DF11D80818033FC
:100B600011F4397E09C032FF06C0B394B39404C0B7
:100B7000832F867809F0B39433FD13C030FF06C08D
:100B80005A2CB31418F4530C5B18B32CB31468F438
:100B9000B70180E290E03C870E943606B3943C8522
:100BA000F5CFB31410F43B1801C0312C34FF12C040
:100BB000B70180E390E03C870E9436063C8532FF17
:100BC00017C031FD03C088E790E002C088E590E0DF
:100BD000B7010CC0832F867859F031FF02C08BE239
:100BE00001C080E237FD8DE2B70190E00E94360639
:100BF000A51438F4B70180E390E00E9436065A94B9
:100C0000F7CFAA94F401EA0DF11D8081B70190E0BD
:100C10000E943606A110F5CF332009F451CEB7015A
:100C200080E290E00E9436063A94F6CFF701868182
:100C3000978102C08FEF9FEF2C96E2E10C94E806BB
:100C4000FC010590615070400110D8F78095909597
:100C50008E0F9F1F0895FC0161507040019001109C
:100C6000D8F7809590958E0F9F1F08950F931F932F
:100C7000CF93DF93FB01238121FD03C08FEF9FEF13
:100C800028C022FF16C04681578124813581421732
:100C9000530744F4A081B1819D012F5F3F4F318301
:100CA00020838C93268137812F5F3F4F37832683A4
:100CB00010C0EB01092F182F0084F185E02D099554
:100CC000892BE1F68E819F8101969F838E83812FF0
:100CD000902FDF91CF911F910F910895FA01AA27CC
:100CE000283051F1203181F1E8946F936E7F6E5F6F
:100CF0007F4F8F4F9F4FAF4FB1E03ED0B4E03CD01D
:100D0000670F781F891F9A1FA11D680F791F8A1FFF
:100D1000911DA11D6A0F711D811D911DA11D20D066
:100D200009F468943F912AE0269F11243019305D20
:100D30003193DEF6CF010895462F4770405D419311
:100D4000B3E00FD0C9F7F6CF462F4F70405D4A335E
:100D500018F0495D31FD4052419302D0A9F7EACF26
:100D6000B4E0A6959795879577956795BA95C9F755
:100D700000976105710508959B01AC010A2E069448
:100D80005795479537952795BA95C9F7620F731F01
:100D9000841F951FA01D08952F923F924F925F923E
:100DA0006F927F928F929F92AF92BF92CF92DF927B
:100DB000EF92FF920F931F93CF93DF93CDB7DEB7E0
:100DC000CA1BDB0B0FB6F894DEBF0FBECDBF099474
:100DD0002A88398848885F846E847D848C849B84CB
:100DE000AA84B984C884DF80EE80FD800C811B81D9
:100DF000AA81B981CE0FD11D0FB6F894DEBF0FBE08
:0A0E0000CDBFED010895F894FFCF77
:100E0A0014785E6D0C010645562044415120554E1A
:100E1A0049542076302E31006769746875622E63F2
:100E2A006F6D2F6A66726932004144433A20202569
:100E3A003034640054696D653A2025303464206D7D
:020E4A00730033
:00000001FF
