S013000045565F4441515F556E69742E7372656342
S11300000C945A000C9477000C9477000C947700AD
S11300100C9477000C9477000C9477000C94770080
S11300200C9477000C9477000C9477000C941E02C7
S11300300C9477000C9477000C9477000C94770060
S11300400C9477000C9477000C9477000C94770050
S11300500C9477000C9477000C9477000C94770040
S11300600C9477000C9477000C9477000C94770030
S11300700C9477000C9477000C9477000C94770020
S11300800C9477000C9477000C9477000C94770010
S11300900C9477000C9477000C9477000C94770000
S11300A00C9477000C9477000C9477000C947700F0
S11300B00C94770011241FBECFEFD8E0DEBFCDBF74
S11300C011E0A0E0B1E0E4E4F5E002C005900D9297
S11300D0A030B107D9F721E0A0E0B1E001C01D9242
S11300E0AB30B207E1F70E94E1010C94A0020C943A
S11300F000000E947E02DA01C9014097A109B109FA
S1130100B695A795979587958093D800ECEDF0E088
S11301108081816080830895813041F018F08230BD
S113012049F00BC084EA8093DC0007C084E8809324
S1130130DC0003C084E98093DC00ECEDF0E0808116
S11301408823ECF78091D900887F0895DF92EF929D
S1130150FF920F931F93CF93DF9380E00E948C0054
S1130160CBEDD0E01CE7188381E00E948C0018825C
S113017081E00E948C000F2EF8E3DF2EF02DD88250
S113018081E00E948C008FE39CE90197F1F700C0A5
S113019000000F2EF9E3FF2EF02DF88281E00E947B
S11301A08C008FE39CE90197F1F700C000000F2E4B
S11301B0F4E1EF2EF02DE88281E00E948C0088E7C4
S11301C0888381E00E948C008EE5888381E00E9410
S11301D08C008DE6888381E00E948C008CE088830B
S11301E081E00E948C0001E0088381E00E948C0081
S11301F086E0888381E00E948C008FE39CE901976C
S1130200F1F700C0000082E00E948C009FEF21EE15
S113021084E0915020408040E1F700C0000080E07D
S11302200E948C008FE39CE90197F1F700C0000065
S1130230188381E00E948C00188281E00E948C0067
S1130240D88281E00E948C0080E4888382E00E944E
S11302508C008FE39CE90197F1F700C0000080E077
S11302600E948C008FE39CE90197F1F700C0000025
S1130270188381E00E948C00188281E00E948C0027
S1130280188281E00E948C008EE1888381E00E94C4
S11302908C0088E1888381E00E948C00E88281E000
S11302A00E948C0082E1888381E00E948C00088394
S11302B081E00E948C00188281E00E948C001882E8
S11302C082E00E948C008FE39CE90197F1F700C063
S11302D0000080E00E948C008FE39CE90197F1F715
S11302E000C00000188381E00E948C00188281E025
S11302F00E948C00F88281E00E948C00088381E0D7
S11303000E948C0082E00E948C008FE39CE901979C
S1130310F1F700C0000080E00E948C008FE39CE9AC
S11303200197F1F700C00000188381E00E948C005F
S1130330188281E00E948C0088E4888381E00E9416
S11303408C0085E6888381E00E948C001CE618837B
S113035081E00E948C00188381E00E948C000FE6EB
S1130360088381E00E948C0080E2888381E00E94FF
S11303708C0087E5888381E00E948C00088381E0FB
S11303800E948C0082E7888381E00E948C0018839D
S113039081E00E948C0084E6888381E00E948C00C6
S11303A082E00E948C008FE39CE90197F1F700C082
S11303B00000DF91CF911F910F91FF90EF90DF909C
S11303C0089520EA36E841E050E060E074E284EF0A
S11303D090E00E947900229A84B18C7F84B985B11F
S11303E0876085B98FE39CE90197F1F700C00000AD
S11303F02A982A9AEFE3FCE93197F1F700C000004C
S11304000E94A6008AB1806C8AB990ECFFEF29E6BD
S113041038E1F15020403040E1F700C000008BB1DA
S113042089278BB983B18C7F89F32A98EFE3FCE9A0
S11304303197F1F700C000002A9AE8CF1F920F927B
S11304400FB60F9211242F938F939F93AF93BF9363
S11304508091070190910801A0910901B0910A01CE
S11304600196A11DB11D8093070190930801A093EB
S11304700901B0930A01809105019091060101964A
S1130480883E23E0920728F49093060180930501A7
S11304902BC01092060110920501809104018F5F18
S11304A08C3318F4809304011FC0109204018091CE
S11304B003018F5F8C3318F48093030115C01092ED
S11304C00301809102018F5F883118F48093020147
S11304D00BC01092020180910001909101010196DC
S11304E09093010180930001BF91AF919F918F91EF
S11304F02F910F900FBE0F901F901895A1E21A2E06
S1130500AA1BBB1BFD010DC0AA1FBB1FEE1FFF1FB3
S1130510A217B307E407F50720F0A21BB30BE40B03
S1130520F50B661F771F881F991F1A9469F760954A
S11305307095809590959B01AC01BD01CF01089504
S1070540F894FFCF59
S9030000FC
