:100000000C945A000C9477000C9477000C947700B1
:100010000C9477000C9477000C9477000C94770084
:100020000C9477000C9477000C9477000C947A0071
:100030000C9477000C9477000C9477000C94770064
:100040000C9477000C9477000C9477000C94770054
:100050000C9477000C9477000C9477000C94770044
:100060000C9477000C9477000C9477000C94770034
:100070000C9477000C9477000C9477000C94770024
:100080000C9477000C9477000C9477000C94770014
:100090000C9477000C9477000C9477000C94770004
:1000A0000C9477000C9477000C9477000C947700F4
:1000B0000C94770011241FBECFEFD8E0DEBFCDBF78
:1000C00011E0A0E0B1E0EAE8F1E002C005900D9295
:1000D000A030B107D9F721E0A0E0B1E001C01D9246
:1000E000A730B207E1F70E9479000C94C3000C948A
:1000F0000000FFCF1F920F920FB60F9211242F9383
:100100008F939F9380910501909106010196883EFF
:1001100023E0920728F490930601809305012BC0F9
:100120001092060110920501809104018F5F8C33BB
:1001300018F4809304011FC0109204018091030100
:100140008F5F8C3318F48093030115C01092030164
:10015000809102018F5F883118F4809302010BC0F7
:1001600010920201809100019091010101969093FB
:100170000101809300019F918F912F910F900FBEED
:0A0180000F901F901895F894FFCF20
:00000001FF
