:100000000C945A000C9477000C9477000C947700B1
:100010000C9477000C9477000C9477000C94770084
:100020000C9477000C9477000C9477000C94FC01EE
:100030000C9477000C9477000C9477000C94770064
:100040000C9477000C9477000C9477000C94770054
:100050000C9477000C9477000C9477000C94770044
:100060000C9477000C9477000C9477000C94770034
:100070000C9477000C9477000C9477000C94770024
:100080000C9477000C9477000C9477000C94770014
:100090000C9477000C9477000C9477000C94770004
:1000A0000C9477000C9477000C9477000C947700F4
:1000B0000C94770011241FBECFEFD8E0DEBFCDBF78
:1000C00012E0A0E0B1E0E6E9FBE002C005900D928D
:1000D000A235B107D9F722E0A2E5B2E001C01D9236
:1000E000AD35B207E1F70E9468010C94C9050C9484
:1000F000000080937E00683008F067E060686093DD
:100100007A0008950E94AC02DA01C9014097A10962
:10011000B109B695A795979587958093D800ECED92
:10012000F0E08081816080830895813041F018F093
:10013000823049F00BC084EA8093DC0007C084E879
:100140008093DC0003C084E98093DC00ECEDF0E0F8
:1001500080818823ECF78091D900887F08958F9261
:100160009F92AF92BF92CF92DF92EF92FF920F9346
:100170001F93CF93DF93C82F062F172F69017A01A2
:1001800080E00E949500883011F081602FC0CC0F74
:10019000C093DB0081E00E949500883231F4C114E5
:1001A000D104E104F10419F41DC081601FC0C02F07
:1001B000D12F812C912C54010BED10E08991F80185
:1001C000808381E00E949500883211F081600EC02A
:1001D000FFEF8F1A9F0AAF0ABF0A8C149D04AE046A
:1001E000BF0461F782E00E94950080E0DF91CF912B
:1001F0001F910F91FF90EF90DF90CF90BF90AF9045
:100200009F908F900895CF93DF93CDB7DEB72A9755
:100210000FB6F894DEBF0FBECDBF198288E38A8384
:1002200089E38B8387E0EEE0F1E0DE011496019034
:100230000D928A95E1F722E030E040E050E0BE0107
:100240006F5F7F4F8CE70E94AF00809159029091C1
:100250005A02A0915B02B0915C02AC01BD01465F05
:100260005F4F6F4F7F4F84179507A607B707D8F3E7
:1002700021E030E040E050E0BE016D5F7F4F8CE751
:100280000E94AF008091590290915A02A0915B02A6
:10029000B0915C02AC01BD01465F5F4F6F4F7F4F75
:1002A00084179507A607B707D8F327E030E040E0AA
:1002B00050E0BE016C5F7F4F8CE70E94AF002A9632
:1002C0000FB6F894DEBF0FBECDBFDF91CF9108957A
:1002D0000E945C0220E032EC41E050E060E074E219
:1002E00084EF90E00E94780220EA36E841E050E096
:1002F00060E074E284EF90E00E94820067E087ECA7
:100300000E9479000E94030120E031E04FE250E0BA
:1003100061E070E085E191E00E94E00220E031E0E0
:100320004FE250E061E070E085E491E00E94E0027D
:1003300020E031E04FE250E061E070E085E791E0DD
:100340000E94E00220E031E04FE250E061E070E026
:1003500085EA91E00E94E00220E031E04FE250E0C7
:1003600061E070E085E791E00E94E00220E031E08A
:100370004FE250E061E070E085ED91E00E94E00224
:1003800020E031E040E350E061E070E085E092E0A1
:100390000E94E00206E312E0C0E0D1E08091580242
:1003A0008F93809157028F93809156021F928F9363
:1003B000809155021F928F93809154021F928F93C8
:1003C000809153028F93809152028F931F930F93CA
:1003D000DF93CF930E94CE028DB79EB70E960FB6D5
:1003E000F8949EBF0FBE8DBFD9CF0E949C0280E0C3
:1003F00008950E94A40208951F920F920FB60F92C3
:1004000011242F938F939F93AF93BF9380915902A1
:1004100090915A02A0915B02B0915C020196A11DDD
:10042000B11D8093590290935A02A0935B02B0933E
:100430005C0280915702909158020196883E23E019
:10044000920728F490935802809357022BC0109281
:10045000580210925702809156028F5F8C3318F425
:10046000809356021FC010925602809155028F5FF2
:100470008C3318F48093550215C010925502809168
:1004800054028F5F883118F4809354020BC010928D
:10049000540280915202909153020196909353021C
:1004A00080935202BF91AF919F918F912F910F90A6
:1004B0000FBE0F901F901895AFE6B0E08C918D7F26
:1004C0008C93E1E8F0E08081887F80831092800047
:1004D00080818B60808389EF90E090938900809386
:1004E00088008C9182608C938081836080830895E2
:1004F0001092C000E8E1E093C100E6E0E093C200A2
:100500000E94AC02BA01A901689414F87695679527
:10051000579547951694D1F7DB01CA010197A109B8
:10052000B109892F9A2FAB2FBB278093C5002FEFDE
:10053000240F2093C4000895E0ECF0E0908195FF33
:10054000FDCF8093C6000895E0ECF0E08081882321
:10055000ECF78091C6000895A1E21A2EAA1BBB1BDE
:10056000FD010DC0AA1FBB1FEE1FFF1FA217B3077F
:10057000E407F50720F0A21BB30BE40BF50B661F95
:10058000771F881F991F1A9469F760957095809559
:1005900090959B01AC01BD01CF010895A0E0B0E0B2
:1005A000E4EDF2E00C94A205AE01475F5F4F6F816E
:1005B00078858D819E810E941403E2E00C94BE0533
:1005C000A0E0B0E0E6EEF2E00C9498055B014A0191
:1005D0007901D90113962C9121FF1DC0C0E0D0E014
:1005E000C815D905D9F08C016C01CA0CDB1CC801F7
:1005F0000C151D0571F00F5F1F4FD7011896ED9177
:10060000FC911997B701DC018C910995892B79F33D
:1006100005C02196E5CF80E090E001C0CE01CDB7C6
:10062000DEB7ECE00C94B405ACE0B0E0EAE1F3E056
:100630000C9492057C016B018A01FC0117821682E1
:10064000838181FFBDC1CE0101964C01F7019381E9
:10065000F60193FD859193FF81916F01882309F441
:10066000ABC1853239F493FD859193FF81916F0180
:10067000853229F4B70190E00E94FC04E7CF512CA9
:10068000312C20E02032A0F48B3269F030F480323B
:1006900059F0833269F420612CC08D3239F08033F7
:1006A00039F4216026C02260246023C0286021C064
:1006B00027FD27C030ED380F3A3078F426FF06C00A
:1006C000FAE05F9E300D1124532E13C08AE0389E4D
:1006D000300D1124332E20620CC08E3221F426FD01
:1006E0006BC1206406C08C3611F4206802C08836C5
:1006F00041F4F60193FD859193FF81916F01811182
:10070000C1CF982F9F7D9554933028F40C5F1F4FD5
:10071000FFE3F9830DC0833631F0833771F0833501
:1007200009F05BC022C0F801808189830E5F1F4FF2
:1007300044244394512C540115C03801F2E06F0E4B
:10074000711CF801A080B18026FF03C0652D70E008
:1007500002C06FEF7FEFC5012C870E94F1042C01CE
:1007600083012C852F77222E17C03801F2E06F0EFF
:10077000711CF801A080B18026FF03C0652D70E0D8
:1007800002C06FEF7FEFC5012C870E94E6042C01A9
:100790002C852068222E830123FC1BC0832D90E032
:1007A00048165906B0F4B70180E290E00E94FC04BC
:1007B0003A94F4CFF50127FC859127FE81915F01E2
:1007C000B70190E00E94FC0431103A94F1E04F1A16
:1007D00051084114510471F7E5C0843611F089368F
:1007E00039F5F80127FF07C060817181828193810B
:1007F0000C5F1F4F08C060817181072E000C880BB1
:10080000990B0E5F1F4F2F76722E97FF09C09095A0
:100810008095709561957F4F8F4F9F4F2068722E06
:100820002AE030E0A4010E943405A82EA81844C094
:10083000853729F42F7EB22E2AE030E025C0F22F32
:10084000F97FBF2E8F36C1F018F4883579F0B4C027
:10085000803719F0883721F0AFC02F2F2061B22EDA
:10086000B4FE0DC08B2D8460B82E09C024FF0AC0D1
:100870009F2F9660B92E06C028E030E005C020E129
:1008800030E002C020E132E0F801B7FE07C060812D
:100890007181828193810C5F1F4F06C060817181DD
:1008A00080E090E00E5F1F4FA4010E943405A82E47
:1008B000A818FB2DFF777F2E76FE0BC0372D3E7FCD
:1008C000A51450F474FE0AC072FC08C0372D3E7E99
:1008D00005C0BA2C372D03C0BA2C01C0B52C34FF8B
:1008E0000DC0FE01EA0DF11D8081803311F4397EC7
:1008F00009C032FF06C0B394B39404C0832F867836
:1009000009F0B39433FD13C030FF06C05A2CB31462
:1009100018F4530C5B18B32CB31468F4B70180E2DD
:1009200090E03C870E94FC04B3943C85F5CFB3145F
:1009300010F43B1801C0312C34FF12C0B70180E322
:1009400090E03C870E94FC043C8532FF17C031FDDB
:1009500003C088E790E002C088E590E0B7010CC0D2
:10096000832F867859F031FF02C08BE201C080E20C
:1009700037FD8DE2B70190E00E94FC04A51438F425
:10098000B70180E390E00E94FC045A94F7CFAA9448
:10099000F401EA0DF11D8081B70190E00E94FC0492
:1009A000A110F5CF332009F451CEB70180E290E0D9
:1009B0000E94FC043A94F6CFF7018681978102C029
:1009C0008FEF9FEF2C96E2E10C94AE05FC010590B1
:1009D000615070400110D8F7809590958E0F9F1F41
:1009E0000895FC016150704001900110D8F7809586
:1009F00090958E0F9F1F08950F931F93CF93DF93B2
:100A0000FB01238121FD03C08FEF9FEF28C022FF50
:100A100016C046815781248135814217530744F41B
:100A2000A081B1819D012F5F3F4F318320838C9343
:100A3000268137812F5F3F4F3783268310C0EB011C
:100A4000092F182F0084F185E02D0995892BE1F6F7
:100A50008E819F8101969F838E83812F902FDF91BE
:100A6000CF911F910F910895FA01AA27283051F1D3
:100A7000203181F1E8946F936E7F6E5F7F4F8F4FCF
:100A80009F4FAF4FB1E03ED0B4E03CD0670F781F2E
:100A9000891F9A1FA11D680F791F8A1F911DA11D13
:100AA0006A0F711D811D911DA11D20D009F468944C
:100AB0003F912AE0269F11243019305D3193DEF6F4
:100AC000CF010895462F4770405D4193B3E00FD0AA
:100AD000C9F7F6CF462F4F70405D4A3318F0495D95
:100AE00031FD4052419302D0A9F7EACFB4E0A69578
:100AF0009795879577956795BA95C9F7009761059A
:100B0000710508959B01AC010A2E069457954795EF
:100B100037952795BA95C9F7620F731F841F951FE4
:100B2000A01D08952F923F924F925F926F927F92F5
:100B30008F929F92AF92BF92CF92DF92EF92FF92ED
:100B40000F931F93CF93DF93CDB7DEB7CA1BDB0B99
:100B50000FB6F894DEBF0FBECDBF09942A8839883E
:100B600048885F846E847D848C849B84AA84B98445
:100B7000C884DF80EE80FD800C811B81AA81B98151
:100B8000CE0FD11D0FB6F894DEBF0FBECDBFED0165
:060B90000895F894FFCF68
:100B96000000000300000000F501F90100001478D0
:100BA6005E6D0C01060A3D3D3D3D3D3D3D3D3D3DF5
:100BB6003D3D3D3D3D3D3D3D3D3D3D3D3D3D3D3D5F
:100BC6003D3D3D3D3D3D3D3D3D3D3D3D3D3D3D3D4F
:100BD6003D3D3D3D000A20202020202020202020D1
:100BE6002020202020202020204445425547204216
:100BF60055494C4420202020202020202020202041
:100C060020202020000A2020202020202020202014
:100C160020202020202020202020202020202020CE
:100C260020202020202020202020202020202020BE
:100C360020202020000A2D2D2D2D454C45435452B1
:100C460049432056454849434C4520444154412098
:100C56004143515549534954494F4E20554E4954E5
:100C66002D2D2D2D000A20202020434F505952496A
:100C7600474854204E4F544943453A20286329207B
:100C860032303136204A6F686E20467269747A2097
:100C960020202020000A3D3D3D3D3D3D3D3D3D3D62
:100CA6003D3D3D3D3D3D3D3D3D3D3D3D3D3D3D3D6E
:100CB6003D3D3D3D3D3D3D3D3D3D3D3D3D3D3D3D5E
:100CC6003D3D3D3D0A000A256420253032643A2523
:100CD6003032643A253032643A253033642020209D
:020CE6002000EC
:00000001FF
