:100000000C9460000C947D000C947D000C947D0099
:100010000C947D000C947D000C947D000C947D006C
:100020000C947D000C947D000C947D000C94AC002D
:100030000C947D000C947D000C947D000C947D004C
:100040000C947D000C947D000C947D000C947D003C
:100050000C947D000C947D000C947D000C947D002C
:100060000C947D000C947D000C947D000C947D001C
:100070000C947D000C947D000C947D000C947D000C
:100080000C947D000C947D000C947D000C947D00FC
:100090000C947D000C947D000C947D000C947D00EC
:1000A0000C947D000C947D000C947D000C947D00DC
:1000B0000C947D006364696E6F70737578585B0093
:1000C00011241FBECFEFD8E0DEBFCDBF11E0A0E00E
:1000D000B1E0E8EEFDE002C005900D92A231B1075B
:1000E000D9F721E0A2E1B1E001C01D92A132B2072F
:1000F000E1F70E947F000C94F2060C9400000F2E92
:10010000F0E0CF2EF1E0DF2EF02D0F2EF2E1EF2EFA
:10011000F1E0FF2EF02D0EE011E0CDE0D1E0DF9216
:10012000CF920E94F500FF92EF921F930F930E94CF
:100130000B01809113018F93809112018F93DF93B4
:10014000CF930E94F5008DB79EB70A960FB6F8942C
:100150009EBF0FBE8DBFE3CF1F920F920FB60F92BF
:1001600011242F938F939F938091190190911A01DD
:100170000196883E23E0920728F490931A01809319
:1001800019012BC010921A011092190180911801C7
:100190008F5F8C3318F4809318011FC010921801E0
:1001A000809117018F5F8C3318F48093170115C06D
:1001B00010921701809116018F5F883118F4809397
:1001C00016010BC010921601809114019091150137
:1001D000019690931501809314019F918F912F9117
:1001E0000F900FBE0F901F901895A0E0B0E0EBEFBE
:1001F000F0E00C94CB06AE014B5F5F4FFA016191CA
:100200007191AF0180911D0190911E010E94210109
:10021000E2E00C94E706A0E0B0E0E1E1F1E00C944C
:10022000CB06AE014B5F5F4FFA0161917191AF0157
:1002300080911B0190911C010E947304E2E00C94D8
:10024000E706ACE0B0E0E7E2F1E00C94BB067C012D
:100250006B018A01FC0117821682838181FFBDC177
:10026000CE0101964C01F7019381F60193FD859132
:1002700093FF81916F01882309F4ABC1853239F472
:1002800093FD859193FF81916F01853229F4B70128
:1002900090E00E940906E7CF512C312C20E020325B
:1002A000A0F48B3269F030F4803259F0833269F473
:1002B00020612CC08D3239F0803339F4216026C0A2
:1002C0002260246023C0286021C027FD27C030EDB4
:1002D000380F3A3078F426FF06C0FAE05F9E300D02
:1002E0001124532E13C08AE0389E300D1124332E72
:1002F00020620CC08E3221F426FD6BC1206406C042
:100300008C3611F4206802C0883641F4F60193FD62
:10031000859193FF81916F018111C1CF982F9F7DAE
:100320009554933028F40C5F1F4FFFE3F9830DC001
:10033000833631F0833771F0833509F05BC022C01A
:10034000F801808189830E5F1F4F44244394512C10
:10035000540115C03801F2E06F0E711CF801A08045
:10036000B18026FF03C0652D70E002C06FEF7FEF04
:10037000C5012C870E94C0052C0183012C852F7795
:10038000222E17C03801F2E06F0E711CF801A08018
:10039000B18026FF03C0652D70E002C06FEF7FEFD4
:1003A000C5012C870E94B5052C012C852068222EC2
:1003B000830123FC1BC0832D90E048165906B0F43E
:1003C000B70180E290E00E9409063A94F4CFF5016B
:1003D00027FC859127FE81915F01B70190E00E9483
:1003E000090631103A94F1E04F1A510841145104B2
:1003F00071F7E5C0843611F0893639F5F80127FF29
:1004000007C060817181828193810C5F1F4F08C09A
:1004100060817181072E000C880B990B0E5F1F4FB6
:100420002F76722E97FF09C09095809570956195F3
:100430007F4F8F4F9F4F2068722E2AE030E0A4013B
:100440000E945A06A82EA81844C0853729F42F7E8A
:10045000B22E2AE030E025C0F22FF97FBF2E8F3672
:10046000C1F018F4883579F0B4C0803719F08837B6
:1004700021F0AFC02F2F2061B22EB4FE0DC08B2D06
:100480008460B82E09C024FF0AC09F2F9660B92E41
:1004900006C028E030E005C020E130E002C020E1E5
:1004A00032E0F801B7FE07C06081718182819381DB
:1004B0000C5F1F4F06C06081718180E090E00E5F8D
:1004C0001F4FA4010E945A06A82EA818FB2DFF77E3
:1004D0007F2E76FE0BC0372D3E7FA51450F474FEA0
:1004E0000AC072FC08C0372D3E7E05C0BA2C372DDD
:1004F00003C0BA2C01C0B52C34FF0DC0FE01EA0DBB
:10050000F11D8081803311F4397E09C032FF06C0AD
:10051000B394B39404C0832F867809F0B39433FD69
:1005200013C030FF06C05A2CB31418F4530C5B18D8
:10053000B32CB31468F4B70180E290E03C870E94CA
:100540000906B3943C85F5CFB31410F43B1801C0F1
:10055000312C34FF12C0B70180E390E03C870E9449
:1005600009063C8532FF17C031FD03C088E790E0E3
:1005700002C088E590E0B7010CC0832F867859F05F
:1005800031FF02C08BE201C080E237FD8DE2B7018E
:1005900090E00E940906A51438F4B70180E390E0CA
:1005A0000E9409065A94F7CFAA94F401EA0DF11DAE
:1005B0008081B70190E00E940906A110F5CF332099
:1005C00009F451CEB70180E290E00E9409063A9406
:1005D000F6CFF7018681978102C08FEF9FEF2C96AF
:1005E000E2E10C94D70620FD09C0FC0123FD05C003
:1005F00022FF02C07383628351834083089544FDC8
:1006000010C046FD10C0DB01FC01AA0FBB1FEE1F8E
:10061000FF1F1094D1F76A0F7B1F8E1F9F1F31E0C1
:1006200003C033E001C034E0660F771F881F991FB5
:100630003150D1F7620F711D811D911D08950F93E7
:100640001F93CF93DF938C01C8010E94CB05EC016F
:1006500097FD08C00E94A105892BB1F7B801CE0112
:100660000E944106CE01DF91CF911F910F91089515
:10067000A1E0B0E0EEE3F3E00C94C1068C01C62EDD
:100680007A0129830E94CB05AC01552729814B3281
:10069000510521F04D32510569F42068CA94C1100A
:1006A00002C080E076C0C80129830E94CB05298161
:1006B00097FDF7CF322F3D7FD32E322F307349F580
:1006C000803339F5BB24BA94BC0C09F44EC0C80180
:1006D00029830E94CB05298197FD47C0382F3F7D94
:1006E000383569F48D2D8264D82ECA94CA94CC20F2
:1006F000E1F1C8010E94CB0597FF0BC036C026FF71
:1007000004C02D2D2260D22E03C03D2D3261D32E88
:10071000CB2C812C912C540120ED280F283080F017
:10072000D4FE04C0B8010E9441061CC02A3040F02B
:10073000D6FEF8CF2F7D3FEE320F363098F7275098
:100740004D2DC501B4010E94FF024B015C018D2DAE
:100750008260D82ECA94CC2059F0C8010E94CB05E3
:1007600097FFDACFD1FC04C09CCF812C912C54018F
:10077000D7FE08C0B094A09490948094811C911CE2
:10078000A11CB11C2D2DB501A401C7010E94F302CB
:1007900081E02196ECE00C94DD06A1E2B0E0E3ED0F
:1007A000F3E00C94BF065C017A01CE0101966C0166
:1007B00080E2F60111928A95E9F7F501838040E025
:1007C00050E0912C712C70E0A1E0B0E0F90183FCC5
:1007D000859183FE81918F01982F9F01811103C024
:1007E00080E090E07CC08E3519F44115510549F147
:1007F000E72FF0E0E417F5073CF48D3559F18D3221
:1008000019F4772001F103C0711001C0982E892FCF
:100810008695869586958601080F111D892F87700C
:100820003D0101C0660C8A95EAF7F80180818629AE
:100830008083991559F0991510F49F5FE8CF915076
:10084000E6CF71E004C07724739401C0712C4F5F30
:100850005F4FBCCF772019F08E8180628E8371113B
:1008600003C09924939416C0F6019E012F5D3F4F5B
:10087000808180958193E217F307D1F7F2CFE114DD
:10088000F10429F0F7018083C70101967C016150D2
:10089000912CF9F0C50169A30E94CB0569A197FDD0
:1008A00016C0282F269526952695F601E20FF11DF4
:1008B000208130E0AC014770552702C0359527955F
:1008C0004A95E2F720FDDBCFB5010E944106911069
:1008D00087CFE114F10411F0F7011082C801A1964D
:1008E000EEE00C94DB064F925F927F928F929F9284
:1008F000AF92BF92CF92DF92EF92FF920F931F932E
:10090000CF93DF931F92CDB7DEB76C012B015A0155
:10091000FC0117821682712CF601F380F201F3FCC0
:100920008591F3FE8191382F2F01882309F4F3C0BC
:1009300090E039830E94A1053981892B21F0C601FD
:100940000E941F03E9CF353241F4F201F3FC3591E7
:10095000F3FE31912F01353269F4C60139830E94CB
:10096000CB05398197FDD5C03817B1F2B6010E9489
:100970004106D1C03A3239F4F3FC3591F3FE31919E
:100980002F0151E001C050E0420110E020ED230FA3
:100990002A3090F45260612F70E080E090E040E2F5
:1009A00059830E94FF02162FF401F3FC3591F3FEE8
:1009B00031914F015981EACF052F232F240151FF97
:1009C00003C0111102C0A7C01FEF383619F03C3622
:1009D00059F011C0F401F3FC2591F3FE21912F0190
:1009E000283649F4052F08600460F201F3FC2591D4
:1009F000F3FE21912F01222309F48DC0622F70E0B4
:100A000084EB90E029830E94AA052981892B09F4AF
:100A100082C000FD07C0F501E080F180C5010296AB
:100A20005C0102C0E12CF12C2E3651F4F601468116
:100A3000578160E070E0202FC7010E94F3026CCF65
:100A4000233691F401FF11E0C6010E94CB0597FD0A
:100A500060C0E114F10429F0F7018083C701019619
:100A60007C01115089F751C02B3559F49201A7012F
:100A7000612FC6010E94CD032C01892B09F045C0CE
:100A80003FC0C60129830E941F03298197FD41C0F1
:100A90002F3659F128F4243631F1293649F127C08F
:100AA000233769F02537F9F022C0E114F10429F069
:100AB000F7018082C70101967C01115071F0C601D7
:100AC0000E94CB054C0197FD08C00E94A105892B0F
:100AD00061F3B601C4010E944106E114F104A9F0DA
:100AE000F701108212C0006203C0006101C00064FF
:100AF000202FA701612FC6010E943803811105C074
:100B0000F6018381807329F406C000FD05CF73943C
:100B100003CF772019F0872D90E002C08FEF9FEF71
:100B20000F90DF91CF911F910F91FF90EF90DF9089
:100B3000CF90BF90AF909F908F907F905F904F909D
:100B4000089591110C94B806803219F0895085509F
:100B5000C8F70895FC010590061621F00020D9F78A
:100B6000C00108953197CF010895FC0105906150AF
:100B700070400110D8F7809590958E0F9F1F0895B3
:100B8000FC016150704001900110D8F7809590955C
:100B90008E0F9F1F0895CF93DF93EC012B8120FFD1
:100BA00033C026FF0AC02F7B2B838E819F81019645
:100BB0009F838E838A8190E029C022FF0FC0E88145
:100BC000F9818081082E000C990B009719F420629E
:100BD0002B831AC03196F983E8830EC0EA85FB8522
:100BE000099597FF09C02B81019611F080E201C0A1
:100BF00080E1822B8B8308C02E813F812F5F3F4F86
:100C00003F832E83992702C08FEF9FEFDF91CF9113
:100C100008950F931F93CF93DF93FB01238121FD51
:100C200003C08FEF9FEF28C022FF16C04681578177
:100C3000248135814217530744F4A081B1819D017D
:100C40002F5F3F4F318320838C93268137812F5F25
:100C50003F4F3783268310C0EB01092F182F0084E4
:100C6000F185E02D0995892BE1F68E819F81019612
:100C70009F838E83812F902FDF91CF911F910F91B2
:100C80000895FB01238120FF12C026FD10C08F3F75
:100C90003FEF930761F082832F7D206423832681B9
:100CA00037812150310937832683992708958FEFA3
:100CB0009FEF0895FA01AA27283051F1203181F1E0
:100CC000E8946F936E7F6E5F7F4F8F4F9F4FAF4F54
:100CD000B1E03ED0B4E03CD0670F781F891F9A1F67
:100CE000A11D680F791F8A1F911DA11D6A0F711D1B
:100CF000811D911DA11D20D009F468943F912AE027
:100D0000269F11243019305D3193DEF6CF0108950E
:100D1000462F4770405D4193B3E00FD0C9F7F6CF3F
:100D2000462F4F70405D4A3318F0495D31FD405207
:100D3000419302D0A9F7EACFB4E0A695979587959D
:100D400077956795BA95C9F700976105710508957C
:100D50009B01AC010A2E0694579547953795279528
:100D6000BA95C9F7620F731F841F951FA01D0895C0
:100D70009927882708952F923F924F925F926F9202
:100D80007F928F929F92AF92BF92CF92DF92EF921B
:100D9000FF920F931F93CF93DF93CDB7DEB7CA1B9C
:100DA000DB0B0FB6F894DEBF0FBECDBF09942A88C7
:100DB000398848885F846E847D848C849B84AA846F
:100DC000B984C884DF80EE80FD800C811B81AA81FC
:100DD000B981CE0FD11D0FB6F894DEBF0FBECDBFC7
:080DE000ED010895F894FFCF26
:100DE8000A48656C6C6F20576F726C64000A256442
:020DF8000000F9
:00000001FF
